:1002BB00E4FDFCC3ED9FEE6480F8EC648098501570
:1002CB00E4FBFA0BBB00010AEB64C84A70F50DBDE9
:0502DB0000010C80DEB3
:0102E00022FB
:10031C001200071202F71203711201FA12001E806A
:01032C00F8D8
:0902E100010800010A0A010900EC
:0B000E00E509B43203E4F509AF092254
:10032D00750A0AEFD3940340027F03EF250AF50AFD
:01033D00229D
:10030A00750A0AEFD3940340027F03C3E50A9FF5F7
:02031A000A22B5
:04000300750A0A224E
:1002F700758900438901758CFF758AA4D2A9D28CB0
:03030700D2AF2250
:03000B000202618D
:10026100C0E0C0D0C28C758CFF758AA4E508D39517
:100271000A5004D2908002C2900508E508C394C8D0
:0E02810040057508000509D28CD0D0D0E032BF
:0602EA00010B00010C00F5
:0400070075A0FF22BF
:1001FA00E4F50FE51065A06002050F85A010120056
:10020A000EEFC3941E5023E50F9403401D150CE511
:10021A000C6480947E5003750CFD7414250BF50B49
:10022A00D3648094D04003750B5012000EEFC39430
:10023A001E5023E50F9403501D050CE50C648094B1
:10024A00834003750C0374EC250BF50BC36480948F
:06025A00805003750BE269
:01026000227B
:10001E0030A01930A11630A21330A31030A40D1247
:10002E0000037FE67E001202BB12038120A01E2079
:10003E00A11B30A21820A31520A4121200037FE6E4
:10004E007E001202BBE50B241EFF12033E20A01DF4
:10005E0030A11A30A21720A31420A4117F0212037C
:10006E002D7FE67E001202BB7F1E12034F20A023BF
:10007E0030A12020A21D20A31A20A417E50C2402D3
:10008E00FF12032D7FE67E001202BBE50B241EFF3E
:10009E0012033E20A01D20A11A30A21730A3142057
:1000AE00A4117F0212030A7FE67E001202BB7F1E9E
:1000BE0012034F20A02320A12020A21D30A31A201E
:1000CE00A417E50C2402FF12030A7FE67E0012023B
:1000DE00BBE50B241EFF12033E30A01D30A11A20DB
:1000EE00A21720A31420A4117F0312032D7FE67EF6
:1000FE00001202BB7F0A12036030A02020A11D2037
:10010E00A21A20A31720A4147F0312032D7FE67ECC
:10011E00001202BBE50B240AFF12036020A01D2073
:10012E00A11A20A21730A31430A4117F0312030AC0
:10013E007FE67E001202BB7F0A12036020A0202001
:10014E00A11D20A21A20A31730A4147F0312030AA4
:10015E007FE67E001202BBE50B240AFF120360222B
:0602F000010E5A010D0091
:10037100438911758DFF758BA4D2AFD2ABD28E227A
:10033E00E4F50EEF250EF50ED394644003750E64AE
:01034E00228C
:10034F00750E46EF250EF50ED394964003750E9657
:01035F00227B
:10036000750E82EF250EF50ED394A04003750EA0F6
:01037000226A
:04038100750EC8220B
:03001B0002028F4F
:10028F00C0E0C0D0C28E758DFF758BA4E50DD395E0
:10029F000E5004D2918002C291050DE50DC394C892
:0C02AF004003750D00D28ED0D0D0E0329C
:0300000002016E8C
:0C016E00787FE4F6D8FD7581100201B521
:10017A0002031CE493A3F8E493A34003F68001F27C
:10018A0008DFF48029E493A3F85407240CC8C33386
:10019A00C4540F4420C8834004F456800146F6DF55
:1001AA00E4800B01020408102040809002E1E47E02
:1001BA00019360BCA3FF543F30E509541FFEE4934A
:1001CA00A360010ECF54C025E060A840B8E493A311
:1001DA00FAE493A3F8E493A3C8C582C8CAC583CA3C
:1001EA00F0A3C8C582C8CAC583CADFE9DEE780BEF4
:0102F6000007
:00000001FF
